{
  "contractName": "JobData",
  "abi": [
    {
      "inputs": [],
      "stateMutability": "nonpayable",
      "type": "constructor"
    },
    {
      "inputs": [],
      "name": "jobCount",
      "outputs": [
        {
          "internalType": "uint256",
          "name": "",
          "type": "uint256"
        }
      ],
      "stateMutability": "view",
      "type": "function"
    },
    {
      "inputs": [
        {
          "internalType": "uint256",
          "name": "",
          "type": "uint256"
        }
      ],
      "name": "jobs",
      "outputs": [
        {
          "internalType": "uint256",
          "name": "id",
          "type": "uint256"
        },
        {
          "internalType": "uint256",
          "name": "creationTimestamp",
          "type": "uint256"
        },
        {
          "internalType": "address",
          "name": "owner",
          "type": "address"
        },
        {
          "internalType": "string",
          "name": "title",
          "type": "string"
        },
        {
          "internalType": "string",
          "name": "description",
          "type": "string"
        },
        {
          "internalType": "bool",
          "name": "active",
          "type": "bool"
        }
      ],
      "stateMutability": "view",
      "type": "function"
    },
    {
      "inputs": [],
      "name": "genesis",
      "outputs": [],
      "stateMutability": "nonpayable",
      "type": "function"
    },
    {
      "inputs": [
        {
          "internalType": "string",
          "name": "title",
          "type": "string"
        },
        {
          "internalType": "string",
          "name": "description",
          "type": "string"
        }
      ],
      "name": "addJob",
      "outputs": [
        {
          "internalType": "uint256",
          "name": "",
          "type": "uint256"
        }
      ],
      "stateMutability": "nonpayable",
      "type": "function"
    }
  ],
  "bytecode": "0x60806040526000805534801561001457600080fd5b50610c1c806100246000396000f3fe608060405234801561001057600080fd5b506004361061004c5760003560e01c8063180aedf3146100515780634c5d8a0f1461008657806389a4bb4b146100a4578063a7f0b3de146100d4575b600080fd5b61006b60048036038101906100669190610870565b6100de565b60405161007d9695949392919061091a565b60405180910390f35b61008e610257565b60405161009b91906108ff565b60405180910390f35b6100be60048036038101906100b99190610804565b61025d565b6040516100cb91906108ff565b60405180910390f35b6100dc61042c565b005b60016020528060005260406000206000915090508060000154908060010154908060020160009054906101000a900473ffffffffffffffffffffffffffffffffffffffff169080600301805461013390610a85565b80601f016020809104026020016040519081016040528092919081815260200182805461015f90610a85565b80156101ac5780601f10610181576101008083540402835291602001916101ac565b820191906000526020600020905b81548152906001019060200180831161018f57829003601f168201915b5050505050908060040180546101c190610a85565b80601f01602080910402602001604051908101604052809291908181526020018280546101ed90610a85565b801561023a5780601f1061020f5761010080835404028352916020019161023a565b820191906000526020600020905b81548152906001019060200180831161021d57829003601f168201915b5050505050908060050160009054906101000a900460ff16905086565b60005481565b6000804290506040518060e0016040528060005481526020018281526020013373ffffffffffffffffffffffffffffffffffffffff168152602001858152602001848152602001600115158152602001600067ffffffffffffffff8111156102ee577f4e487b7100000000000000000000000000000000000000000000000000000000600052604160045260246000fd5b60405190808252806020026020018201604052801561031c5781602001602082028036833780820191505090505b508152506001600080548152602001908152602001600020600082015181600001556020820151816001015560408201518160020160006101000a81548173ffffffffffffffffffffffffffffffffffffffff021916908373ffffffffffffffffffffffffffffffffffffffff16021790555060608201518160030190805190602001906103ab92919061065a565b5060808201518160040190805190602001906103c892919061065a565b5060a08201518160050160006101000a81548160ff02191690831515021790555060c08201518160060190805190602001906104059291906106e0565b5090505060008081548092919061041b90610ae8565b919050555060005491505092915050565b60004290506040518060e00160405280600081526020018281526020013373ffffffffffffffffffffffffffffffffffffffff1681526020016040518060400160405280600881526020017f54657374206a6f6200000000000000000000000000000000000000000000000081525081526020016040518060400160405280601a81526020017f4c6f72656d20497073756d20506f7461746f20506f7461746f650000000000008152508152602001600115158152602001600067ffffffffffffffff811115610525577f4e487b7100000000000000000000000000000000000000000000000000000000600052604160045260246000fd5b6040519080825280602002602001820160405280156105535781602001602082028036833780820191505090505b508152506001600080548152602001908152602001600020600082015181600001556020820151816001015560408201518160020160006101000a81548173ffffffffffffffffffffffffffffffffffffffff021916908373ffffffffffffffffffffffffffffffffffffffff16021790555060608201518160030190805190602001906105e292919061065a565b5060808201518160040190805190602001906105ff92919061065a565b5060a08201518160050160006101000a81548160ff02191690831515021790555060c082015181600601908051906020019061063c9291906106e0565b5090505060008081548092919061065290610ae8565b919050555050565b82805461066690610a85565b90600052602060002090601f01602090048101928261068857600085556106cf565b82601f106106a157805160ff19168380011785556106cf565b828001600101855582156106cf579182015b828111156106ce5782518255916020019190600101906106b3565b5b5090506106dc919061076a565b5090565b828054828255906000526020600020908101928215610759579160200282015b828111156107585782518260006101000a81548173ffffffffffffffffffffffffffffffffffffffff021916908373ffffffffffffffffffffffffffffffffffffffff16021790555091602001919060010190610700565b5b509050610766919061076a565b5090565b5b8082111561078357600081600090555060010161076b565b5090565b600061079a610795846109ae565b610989565b9050828152602081018484840111156107b257600080fd5b6107bd848285610a43565b509392505050565b600082601f8301126107d657600080fd5b81356107e6848260208601610787565b91505092915050565b6000813590506107fe81610bcf565b92915050565b6000806040838503121561081757600080fd5b600083013567ffffffffffffffff81111561083157600080fd5b61083d858286016107c5565b925050602083013567ffffffffffffffff81111561085a57600080fd5b610866858286016107c5565b9150509250929050565b60006020828403121561088257600080fd5b6000610890848285016107ef565b91505092915050565b6108a2816109fb565b82525050565b6108b181610a0d565b82525050565b60006108c2826109df565b6108cc81856109ea565b93506108dc818560208601610a52565b6108e581610bbe565b840191505092915050565b6108f981610a39565b82525050565b600060208201905061091460008301846108f0565b92915050565b600060c08201905061092f60008301896108f0565b61093c60208301886108f0565b6109496040830187610899565b818103606083015261095b81866108b7565b9050818103608083015261096f81856108b7565b905061097e60a08301846108a8565b979650505050505050565b60006109936109a4565b905061099f8282610ab7565b919050565b6000604051905090565b600067ffffffffffffffff8211156109c9576109c8610b8f565b5b6109d282610bbe565b9050602081019050919050565b600081519050919050565b600082825260208201905092915050565b6000610a0682610a19565b9050919050565b60008115159050919050565b600073ffffffffffffffffffffffffffffffffffffffff82169050919050565b6000819050919050565b82818337600083830152505050565b60005b83811015610a70578082015181840152602081019050610a55565b83811115610a7f576000848401525b50505050565b60006002820490506001821680610a9d57607f821691505b60208210811415610ab157610ab0610b60565b5b50919050565b610ac082610bbe565b810181811067ffffffffffffffff82111715610adf57610ade610b8f565b5b80604052505050565b6000610af382610a39565b91507fffffffffffffffffffffffffffffffffffffffffffffffffffffffffffffffff821415610b2657610b25610b31565b5b600182019050919050565b7f4e487b7100000000000000000000000000000000000000000000000000000000600052601160045260246000fd5b7f4e487b7100000000000000000000000000000000000000000000000000000000600052602260045260246000fd5b7f4e487b7100000000000000000000000000000000000000000000000000000000600052604160045260246000fd5b6000601f19601f8301169050919050565b610bd881610a39565b8114610be357600080fd5b5056fea264697066735822122064f550888c69c236346c9a22641c2b11fa6c6988635e8a035c3748b6de7bcec364736f6c63430008040033",
  "immutableReferences": {},
  "source": "pragma solidity ^0.8.4;\npragma experimental ABIEncoderV2;\n\ncontract JobData {\n\n  uint public jobCount = 0;\n\n  struct Job {\n    uint id;\n    uint creationTimestamp;\n    address owner;\n    string title;\n    string description;\n    bool active;\n    address[] workers;\n  }\n\n  //uint == ID\n  mapping (uint => Job) public jobs;\n\n  constructor () {\n    //genesis();\n  }\n\n\n  function genesis() public {\n\n    uint currentTime = block.timestamp;\n\n    jobs[jobCount] = Job(0, currentTime, msg.sender, \"Test job\", \"Lorem Ipsum Potato Potatoe\", true, new address[](0));\n    jobCount++;\n  }\n\n\n  function addJob(string memory title, string memory description) public returns(uint){\n\n    uint currentTime = block.timestamp;\n\n    jobs[jobCount] = Job(jobCount, currentTime, msg.sender, title, description, true, new address[](0));\n\n    jobCount ++;\n    return jobCount;\n  }\n\n  // function updateJob(uint id, string memory name, uint total, uint perCap, uint EPI, uint EH, uint EV) public {\n\n  //   uint oldCO2 = countries[id].totalCO2;\n  //   uint oldPerCap = countries[id].perCapCO2;\n  //   uint oldEPI = countries[id].envPerfIndex;\n  //   uint oldEH = countries[id].envHealth;\n  //   uint oldEV = countries[id].ecoVitality;\n\n  //   storeOldCountry(id, name, oldCO2, oldPerCap, oldEPI, oldEH, oldEV);\n\n  //   //countries[id] = Country(id, name, total, perCap, EPI, EH, EV, numRevisions, currentTime );\n  //   storeNewCountry(id, name, total, perCap, EPI, EH, EV);\n  // }\n\n  // function storeNewCountry(uint id, string memory name, uint total, uint perCap, uint EPI, uint EH, uint EV) private {\n\n  //   uint currentTime = now;\n  //   uint numRevisions = (countries[id].changes + 1);\n\n  //   countries[id] = Country(id, name, total, perCap, EPI, EH, EV, numRevisions, currentTime );\n  // }\n\n  // function storeOldCountry(uint id, string memory name, uint oldTotal, uint oldPerCap, uint oldEPI, uint oldEH, uint oldEV) private {\n\n  //   Country memory countryHistory = Country(id, name, oldTotal, oldPerCap, oldEPI, oldEH, oldEV, countries[id].changes, countries[id].editTime);\n\n  //   history[name].push(countryHistory);\n\n  // }\n\n  // function returnCountryCount (uint id) public view returns (uint) {\n\n  //   uint editCount = countries[id].changes;\n\n  //   return editCount;\n  // }\n\n\n  // function returnJob (uint index, string memory name) public view returns (Job memory) {\n\n  //   return history[name][index];\n  // }\n\n}\n",
  "sourcePath": "/Users/ken/dev/raidguildjobs/contracts/jobs.sol",
  "compiler": {
    "name": "solc",
    "version": "0.8.4+commit.c7e474f2.Emscripten.clang"
  },
  "schemaVersion": "3.3.2",
  "updatedAt": "2021-05-26T11:11:47.004Z",
  "devdoc": {
    "kind": "dev",
    "methods": {},
    "version": 1
  },
  "userdoc": {
    "kind": "user",
    "methods": {},
    "version": 1
  }
}