{
  "contractName": "CompanyData",
  "abi": [
    {
      "inputs": [],
      "stateMutability": "nonpayable",
      "type": "constructor"
    },
    {
      "inputs": [
        {
          "internalType": "uint256",
          "name": "",
          "type": "uint256"
        }
      ],
      "name": "companies",
      "outputs": [
        {
          "internalType": "uint256",
          "name": "id",
          "type": "uint256"
        },
        {
          "internalType": "uint256",
          "name": "creationTimestamp",
          "type": "uint256"
        },
        {
          "internalType": "address",
          "name": "owner",
          "type": "address"
        },
        {
          "internalType": "string",
          "name": "title",
          "type": "string"
        },
        {
          "internalType": "string",
          "name": "description",
          "type": "string"
        },
        {
          "internalType": "bool",
          "name": "active",
          "type": "bool"
        }
      ],
      "stateMutability": "view",
      "type": "function"
    },
    {
      "inputs": [],
      "name": "companyCount",
      "outputs": [
        {
          "internalType": "uint256",
          "name": "",
          "type": "uint256"
        }
      ],
      "stateMutability": "view",
      "type": "function"
    },
    {
      "inputs": [],
      "name": "genesis",
      "outputs": [],
      "stateMutability": "nonpayable",
      "type": "function"
    },
    {
      "inputs": [
        {
          "internalType": "string",
          "name": "title",
          "type": "string"
        },
        {
          "internalType": "string",
          "name": "description",
          "type": "string"
        }
      ],
      "name": "addCompany",
      "outputs": [
        {
          "internalType": "uint256",
          "name": "",
          "type": "uint256"
        }
      ],
      "stateMutability": "nonpayable",
      "type": "function"
    }
  ],
  "bytecode": "0x60806040526000805534801561001457600080fd5b50610a72806100246000396000f3fe608060405234801561001057600080fd5b506004361061004c5760003560e01c80632813d19d146100515780636559c310146100865780638e75dd47146100b6578063a7f0b3de146100d4575b600080fd5b61006b600480360381019061006691906106a5565b6100de565b60405161007d9695949392919061074f565b60405180910390f35b6100a0600480360381019061009b9190610639565b610257565b6040516100ad9190610734565b60405180910390f35b6100be610394565b6040516100cb9190610734565b60405180910390f35b6100dc61039a565b005b60016020528060005260406000206000915090508060000154908060010154908060020160009054906101000a900473ffffffffffffffffffffffffffffffffffffffff1690806003018054610133906108ba565b80601f016020809104026020016040519081016040528092919081815260200182805461015f906108ba565b80156101ac5780601f10610181576101008083540402835291602001916101ac565b820191906000526020600020905b81548152906001019060200180831161018f57829003601f168201915b5050505050908060040180546101c1906108ba565b80601f01602080910402602001604051908101604052809291908181526020018280546101ed906108ba565b801561023a5780601f1061020f5761010080835404028352916020019161023a565b820191906000526020600020905b81548152906001019060200180831161021d57829003601f168201915b5050505050908060050160009054906101000a900460ff16905086565b6000804290506040518060c0016040528060005481526020018281526020013373ffffffffffffffffffffffffffffffffffffffff168152602001858152602001848152602001600115158152506001600080548152602001908152602001600020600082015181600001556020820151816001015560408201518160020160006101000a81548173ffffffffffffffffffffffffffffffffffffffff021916908373ffffffffffffffffffffffffffffffffffffffff1602179055506060820151816003019080519060200190610330929190610519565b50608082015181600401908051906020019061034d929190610519565b5060a08201518160050160006101000a81548160ff0219169083151502179055509050506000808154809291906103839061091d565b919050555060005491505092915050565b60005481565b60004290506040518060c00160405280600081526020018281526020013373ffffffffffffffffffffffffffffffffffffffff1681526020016040518060400160405280600c81526020017f5465737420636f6d70616e7900000000000000000000000000000000000000008152508152602001604051806060016040528060218152602001610a1c602191398152602001600115158152506001600080548152602001908152602001600020600082015181600001556020820151816001015560408201518160020160006101000a81548173ffffffffffffffffffffffffffffffffffffffff021916908373ffffffffffffffffffffffffffffffffffffffff16021790555060608201518160030190805190602001906104be929190610519565b5060808201518160040190805190602001906104db929190610519565b5060a08201518160050160006101000a81548160ff0219169083151502179055509050506000808154809291906105119061091d565b919050555050565b828054610525906108ba565b90600052602060002090601f016020900481019282610547576000855561058e565b82601f1061056057805160ff191683800117855561058e565b8280016001018555821561058e579182015b8281111561058d578251825591602001919060010190610572565b5b50905061059b919061059f565b5090565b5b808211156105b85760008160009055506001016105a0565b5090565b60006105cf6105ca846107e3565b6107be565b9050828152602081018484840111156105e757600080fd5b6105f2848285610878565b509392505050565b600082601f83011261060b57600080fd5b813561061b8482602086016105bc565b91505092915050565b60008135905061063381610a04565b92915050565b6000806040838503121561064c57600080fd5b600083013567ffffffffffffffff81111561066657600080fd5b610672858286016105fa565b925050602083013567ffffffffffffffff81111561068f57600080fd5b61069b858286016105fa565b9150509250929050565b6000602082840312156106b757600080fd5b60006106c584828501610624565b91505092915050565b6106d781610830565b82525050565b6106e681610842565b82525050565b60006106f782610814565b610701818561081f565b9350610711818560208601610887565b61071a816109f3565b840191505092915050565b61072e8161086e565b82525050565b60006020820190506107496000830184610725565b92915050565b600060c0820190506107646000830189610725565b6107716020830188610725565b61077e60408301876106ce565b818103606083015261079081866106ec565b905081810360808301526107a481856106ec565b90506107b360a08301846106dd565b979650505050505050565b60006107c86107d9565b90506107d482826108ec565b919050565b6000604051905090565b600067ffffffffffffffff8211156107fe576107fd6109c4565b5b610807826109f3565b9050602081019050919050565b600081519050919050565b600082825260208201905092915050565b600061083b8261084e565b9050919050565b60008115159050919050565b600073ffffffffffffffffffffffffffffffffffffffff82169050919050565b6000819050919050565b82818337600083830152505050565b60005b838110156108a557808201518184015260208101905061088a565b838111156108b4576000848401525b50505050565b600060028204905060018216806108d257607f821691505b602082108114156108e6576108e5610995565b5b50919050565b6108f5826109f3565b810181811067ffffffffffffffff82111715610914576109136109c4565b5b80604052505050565b60006109288261086e565b91507fffffffffffffffffffffffffffffffffffffffffffffffffffffffffffffffff82141561095b5761095a610966565b5b600182019050919050565b7f4e487b7100000000000000000000000000000000000000000000000000000000600052601160045260246000fd5b7f4e487b7100000000000000000000000000000000000000000000000000000000600052602260045260246000fd5b7f4e487b7100000000000000000000000000000000000000000000000000000000600052604160045260246000fd5b6000601f19601f8301169050919050565b610a0d8161086e565b8114610a1857600080fd5b5056fe452d436f7270204c6f72656d20497073756d20506f7461746f20506f7461746f65a2646970667358221220ec7da55c798eef44b45f9fb7ff3005770607f6a8cbfa1b64e601fdb7f7ee0cff64736f6c63430008040033",
  "immutableReferences": {},
  "source": "pragma solidity 0.8.4;\n\ncontract CompanyData {\n\n  uint public companyCount = 0;\n\n  struct Company {\n    uint id;\n    uint creationTimestamp;\n    address owner;\n    string title;\n    string description;\n    bool active;\n  }\n\n  mapping (uint => Company) public companies;\n\n  constructor () {\n    //genesis();\n  }\n\n\n  function genesis() public {\n\n    uint currentTime = block.timestamp;\n\n    companies[companyCount] = Company(0, currentTime, msg.sender, \"Test company\", \"E-Corp Lorem Ipsum Potato Potatoe\", true);\n    companyCount++;\n  }\n\n\n  function addCompany(string memory title, string memory description) public returns(uint){\n\n    uint currentTime = block.timestamp;\n\n    companies[companyCount] = Company(companyCount, currentTime, msg.sender, title, description, true);\n\n    companyCount ++;\n    return companyCount;\n  }\n\n}\n",
  "sourcePath": "/Users/ken/dev/raidguildjobs/contracts/companies.sol",
  "compiler": {
    "name": "solc",
    "version": "0.8.4+commit.c7e474f2.Emscripten.clang"
  },
  "schemaVersion": "3.3.2",
  "updatedAt": "2021-05-26T11:11:47.002Z",
  "devdoc": {
    "kind": "dev",
    "methods": {},
    "version": 1
  },
  "userdoc": {
    "kind": "user",
    "methods": {},
    "version": 1
  }
}