{
  "contractName": "CountryData",
  "abi": [
    {
      "inputs": [],
      "payable": false,
      "stateMutability": "nonpayable",
      "type": "constructor"
    },
    {
      "constant": true,
      "inputs": [
        {
          "internalType": "uint256",
          "name": "",
          "type": "uint256"
        }
      ],
      "name": "countries",
      "outputs": [
        {
          "internalType": "uint256",
          "name": "id",
          "type": "uint256"
        },
        {
          "internalType": "string",
          "name": "country",
          "type": "string"
        },
        {
          "internalType": "uint256",
          "name": "totalCO2",
          "type": "uint256"
        },
        {
          "internalType": "uint256",
          "name": "perCapCO2",
          "type": "uint256"
        },
        {
          "internalType": "uint256",
          "name": "envPerfIndex",
          "type": "uint256"
        },
        {
          "internalType": "uint256",
          "name": "envHealth",
          "type": "uint256"
        },
        {
          "internalType": "uint256",
          "name": "ecoVitality",
          "type": "uint256"
        },
        {
          "internalType": "uint256",
          "name": "changes",
          "type": "uint256"
        },
        {
          "internalType": "uint256",
          "name": "editTime",
          "type": "uint256"
        }
      ],
      "payable": false,
      "stateMutability": "view",
      "type": "function"
    },
    {
      "constant": true,
      "inputs": [],
      "name": "countryCount",
      "outputs": [
        {
          "internalType": "uint256",
          "name": "",
          "type": "uint256"
        }
      ],
      "payable": false,
      "stateMutability": "view",
      "type": "function"
    },
    {
      "constant": true,
      "inputs": [
        {
          "internalType": "string",
          "name": "",
          "type": "string"
        },
        {
          "internalType": "uint256",
          "name": "",
          "type": "uint256"
        }
      ],
      "name": "history",
      "outputs": [
        {
          "internalType": "uint256",
          "name": "id",
          "type": "uint256"
        },
        {
          "internalType": "string",
          "name": "country",
          "type": "string"
        },
        {
          "internalType": "uint256",
          "name": "totalCO2",
          "type": "uint256"
        },
        {
          "internalType": "uint256",
          "name": "perCapCO2",
          "type": "uint256"
        },
        {
          "internalType": "uint256",
          "name": "envPerfIndex",
          "type": "uint256"
        },
        {
          "internalType": "uint256",
          "name": "envHealth",
          "type": "uint256"
        },
        {
          "internalType": "uint256",
          "name": "ecoVitality",
          "type": "uint256"
        },
        {
          "internalType": "uint256",
          "name": "changes",
          "type": "uint256"
        },
        {
          "internalType": "uint256",
          "name": "editTime",
          "type": "uint256"
        }
      ],
      "payable": false,
      "stateMutability": "view",
      "type": "function"
    },
    {
      "constant": false,
      "inputs": [],
      "name": "genesis",
      "outputs": [],
      "payable": false,
      "stateMutability": "nonpayable",
      "type": "function"
    },
    {
      "constant": false,
      "inputs": [
        {
          "internalType": "string",
          "name": "name",
          "type": "string"
        },
        {
          "internalType": "uint256",
          "name": "total",
          "type": "uint256"
        },
        {
          "internalType": "uint256",
          "name": "perCap",
          "type": "uint256"
        },
        {
          "internalType": "uint256",
          "name": "EPI",
          "type": "uint256"
        },
        {
          "internalType": "uint256",
          "name": "EH",
          "type": "uint256"
        },
        {
          "internalType": "uint256",
          "name": "EV",
          "type": "uint256"
        }
      ],
      "name": "addCountry",
      "outputs": [],
      "payable": false,
      "stateMutability": "nonpayable",
      "type": "function"
    },
    {
      "constant": false,
      "inputs": [
        {
          "internalType": "uint256",
          "name": "id",
          "type": "uint256"
        },
        {
          "internalType": "string",
          "name": "name",
          "type": "string"
        },
        {
          "internalType": "uint256",
          "name": "total",
          "type": "uint256"
        },
        {
          "internalType": "uint256",
          "name": "perCap",
          "type": "uint256"
        },
        {
          "internalType": "uint256",
          "name": "EPI",
          "type": "uint256"
        },
        {
          "internalType": "uint256",
          "name": "EH",
          "type": "uint256"
        },
        {
          "internalType": "uint256",
          "name": "EV",
          "type": "uint256"
        }
      ],
      "name": "updateCountry",
      "outputs": [],
      "payable": false,
      "stateMutability": "nonpayable",
      "type": "function"
    },
    {
      "constant": true,
      "inputs": [
        {
          "internalType": "uint256",
          "name": "id",
          "type": "uint256"
        }
      ],
      "name": "returnCountryCount",
      "outputs": [
        {
          "internalType": "uint256",
          "name": "",
          "type": "uint256"
        }
      ],
      "payable": false,
      "stateMutability": "view",
      "type": "function"
    },
    {
      "constant": true,
      "inputs": [
        {
          "internalType": "uint256",
          "name": "index",
          "type": "uint256"
        },
        {
          "internalType": "string",
          "name": "name",
          "type": "string"
        }
      ],
      "name": "returnCountry",
      "outputs": [
        {
          "components": [
            {
              "internalType": "uint256",
              "name": "id",
              "type": "uint256"
            },
            {
              "internalType": "string",
              "name": "country",
              "type": "string"
            },
            {
              "internalType": "uint256",
              "name": "totalCO2",
              "type": "uint256"
            },
            {
              "internalType": "uint256",
              "name": "perCapCO2",
              "type": "uint256"
            },
            {
              "internalType": "uint256",
              "name": "envPerfIndex",
              "type": "uint256"
            },
            {
              "internalType": "uint256",
              "name": "envHealth",
              "type": "uint256"
            },
            {
              "internalType": "uint256",
              "name": "ecoVitality",
              "type": "uint256"
            },
            {
              "internalType": "uint256",
              "name": "changes",
              "type": "uint256"
            },
            {
              "internalType": "uint256",
              "name": "editTime",
              "type": "uint256"
            }
          ],
          "internalType": "struct CountryData.Country",
          "name": "",
          "type": "tuple"
        }
      ],
      "payable": false,
      "stateMutability": "view",
      "type": "function"
    }
  ],
  "bytecode": "0x60806040526000805534801561001457600080fd5b506111cc806100246000396000f3fe608060405234801561001057600080fd5b50600436106100885760003560e01c8063978080581161005b578063978080581461012d578063a7f0b3de14610165578063b7f1e37a1461016f578063de72edd71461019f57610088565b806308e9daa51461008d578063338d1a97146100c557806355fb6324146100f5578063711975c914610111575b600080fd5b6100a760048036036100a29190810190610cac565b6101bd565b6040516100bc99989796959493929190610fb9565b60405180910390f35b6100df60048036036100da9190810190610cd5565b6102a3565b6040516100ec9190610f7c565b60405180910390f35b61010f600480360361010a9190810190610bb7565b6103e8565b005b61012b60048036036101269190810190610d29565b6104cf565b005b61014760048036036101429190810190610c58565b610582565b60405161015c99989796959493929190610fb9565b60405180910390f35b61016d610698565b005b61018960048036036101849190810190610cac565b6107b2565b6040516101969190610f9e565b60405180910390f35b6101a76107d7565b6040516101b49190610f9e565b60405180910390f35b6001602052806000526040600020600091509050806000015490806001018054600181600116156101000203166002900480601f01602080910402602001604051908101604052809291908181526020018280546001816001161561010002031660029004801561026f5780601f106102445761010080835404028352916020019161026f565b820191906000526020600020905b81548152906001019060200180831161025257829003601f168201915b5050505050908060020154908060030154908060040154908060050154908060060154908060070154908060080154905089565b6102ab610a09565b6002826040516102bb9190610f65565b908152602001604051809103902083815481106102d457fe5b90600052602060002090600902016040518061012001604052908160008201548152602001600182018054600181600116156101000203166002900480601f0160208091040260200160405190810160405280929190818152602001828054600181600116156101000203166002900480156103915780601f1061036657610100808354040283529160200191610391565b820191906000526020600020905b81548152906001019060200180831161037457829003601f168201915b50505050508152602001600282015481526020016003820154815260200160048201548152602001600582015481526020016006820154815260200160078201548152602001600882015481525050905092915050565b600042905060405180610120016040528060005481526020018881526020018781526020018681526020018581526020018481526020018381526020016000815260200182815250600160008054815260200190815260200160002060008201518160000155602082015181600101908051906020019061046a929190610a55565b5060408201518160020155606082015181600301556080820151816004015560a0820151816005015560c0820151816006015560e082015181600701556101008201518160080155905050600080815480929190600101919050555050505050505050565b6000600160008981526020019081526020016000206002015490506000600160008a81526020019081526020016000206003015490506000600160008b81526020019081526020016000206004015490506000600160008c81526020019081526020016000206005015490506000600160008d81526020019081526020016000206006015490506105658c8c87878787876107dd565b6105748c8c8c8c8c8c8c610918565b505050505050505050505050565b60028280516020810182018051848252602083016020850120818352809550505050505081815481106105b157fe5b906000526020600020906009020160009150915050806000015490806001018054600181600116156101000203166002900480601f0160208091040260200160405190810160405280929190818152602001828054600181600116156101000203166002900480156106645780601f1061063957610100808354040283529160200191610664565b820191906000526020600020905b81548152906001019060200180831161064757829003601f168201915b5050505050908060020154908060030154908060040154908060050154908060060154908060070154908060080154905089565b6000429050604051806101200160405280600081526020016040518060400160405280600781526020017f416d6572696361000000000000000000000000000000000000000000000000008152508152602001606481526020016063815260200160628152602001606181526020016060815260200160008152602001828152506001600080548152602001908152602001600020600082015181600001556020820151816001019080519060200190610753929190610a55565b5060408201518160020155606082015181600301556080820151816004015560a0820151816005015560c0820151816006015560e082015181600701556101008201518160080155905050600080815480929190600101919050555050565b6000806001600084815260200190815260200160002060070154905080915050919050565b60005481565b6107e5610a09565b604051806101200160405280898152602001888152602001878152602001868152602001858152602001848152602001838152602001600160008b8152602001908152602001600020600701548152602001600160008b81526020019081526020016000206008015481525090506002876040516108639190610f65565b908152602001604051809103902081908060018154018082558091505090600182039060005260206000209060090201600090919290919091506000820151816000015560208201518160010190805190602001906108c3929190610a55565b5060408201518160020155606082015181600301556080820151816004015560a0820151816005015560c0820151816006015560e0820151816007015561010082015181600801555050505050505050505050565b6000429050600060018060008b8152602001908152602001600020600701540190506040518061012001604052808a815260200189815260200188815260200187815260200186815260200185815260200184815260200182815260200183815250600160008b81526020019081526020016000206000820151816000015560208201518160010190805190602001906109b3929190610a55565b5060408201518160020155606082015181600301556080820151816004015560a0820151816005015560c0820151816006015560e082015181600701556101008201518160080155905050505050505050505050565b6040518061012001604052806000815260200160608152602001600081526020016000815260200160008152602001600081526020016000815260200160008152602001600081525090565b828054600181600116156101000203166002900490600052602060002090601f016020900481019282601f10610a9657805160ff1916838001178555610ac4565b82800160010185558215610ac4579182015b82811115610ac3578251825591602001919060010190610aa8565b5b509050610ad19190610ad5565b5090565b610af791905b80821115610af3576000816000905550600101610adb565b5090565b90565b600082601f830112610b0b57600080fd5b8135610b1e610b198261107a565b61104d565b91508082526020830160208301858383011115610b3a57600080fd5b610b4583828461111f565b50505092915050565b600082601f830112610b5f57600080fd5b8135610b72610b6d826110a6565b61104d565b91508082526020830160208301858383011115610b8e57600080fd5b610b9983828461111f565b50505092915050565b600081359050610bb181611172565b92915050565b60008060008060008060c08789031215610bd057600080fd5b600087013567ffffffffffffffff811115610bea57600080fd5b610bf689828a01610b4e565b9650506020610c0789828a01610ba2565b9550506040610c1889828a01610ba2565b9450506060610c2989828a01610ba2565b9350506080610c3a89828a01610ba2565b92505060a0610c4b89828a01610ba2565b9150509295509295509295565b60008060408385031215610c6b57600080fd5b600083013567ffffffffffffffff811115610c8557600080fd5b610c9185828601610afa565b9250506020610ca285828601610ba2565b9150509250929050565b600060208284031215610cbe57600080fd5b6000610ccc84828501610ba2565b91505092915050565b60008060408385031215610ce857600080fd5b6000610cf685828601610ba2565b925050602083013567ffffffffffffffff811115610d1357600080fd5b610d1f85828601610b4e565b9150509250929050565b600080600080600080600060e0888a031215610d4457600080fd5b6000610d528a828b01610ba2565b975050602088013567ffffffffffffffff811115610d6f57600080fd5b610d7b8a828b01610b4e565b9650506040610d8c8a828b01610ba2565b9550506060610d9d8a828b01610ba2565b9450506080610dae8a828b01610ba2565b93505060a0610dbf8a828b01610ba2565b92505060c0610dd08a828b01610ba2565b91505092959891949750929550565b6000610dea826110dd565b610df4818561110a565b9350610e0481856020860161112e565b80840191505092915050565b6000610e1b826110d2565b610e2581856110e8565b9350610e3581856020860161112e565b610e3e81611161565b840191505092915050565b6000610e54826110d2565b610e5e81856110f9565b9350610e6e81856020860161112e565b610e7781611161565b840191505092915050565b600061012083016000830151610e9b6000860182610f47565b5060208301518482036020860152610eb38282610e10565b9150506040830151610ec86040860182610f47565b506060830151610edb6060860182610f47565b506080830151610eee6080860182610f47565b5060a0830151610f0160a0860182610f47565b5060c0830151610f1460c0860182610f47565b5060e0830151610f2760e0860182610f47565b50610100830151610f3c610100860182610f47565b508091505092915050565b610f5081611115565b82525050565b610f5f81611115565b82525050565b6000610f718284610ddf565b915081905092915050565b60006020820190508181036000830152610f968184610e82565b905092915050565b6000602082019050610fb36000830184610f56565b92915050565b600061012082019050610fcf600083018c610f56565b8181036020830152610fe1818b610e49565b9050610ff0604083018a610f56565b610ffd6060830189610f56565b61100a6080830188610f56565b61101760a0830187610f56565b61102460c0830186610f56565b61103160e0830185610f56565b61103f610100830184610f56565b9a9950505050505050505050565b6000604051905081810181811067ffffffffffffffff8211171561107057600080fd5b8060405250919050565b600067ffffffffffffffff82111561109157600080fd5b601f19601f8301169050602081019050919050565b600067ffffffffffffffff8211156110bd57600080fd5b601f19601f8301169050602081019050919050565b600081519050919050565b600081519050919050565b600082825260208201905092915050565b600082825260208201905092915050565b600081905092915050565b6000819050919050565b82818337600083830152505050565b60005b8381101561114c578082015181840152602081019050611131565b8381111561115b576000848401525b50505050565b6000601f19601f8301169050919050565b61117b81611115565b811461118657600080fd5b5056fea365627a7a72315820f3a4ad04b6547974177bff3e85f1bf641bbf9d8700c65bcad17d8b48cd3df9016c6578706572696d656e74616cf564736f6c63430005100040",
  "source": "pragma solidity ^0.5.16;\npragma experimental ABIEncoderV2;\n\ncontract CountryData {\n\n  uint public countryCount = 0;\n\n  struct Country {\n    uint id;\n    string country;\n    uint totalCO2 ;\n    uint perCapCO2;\n    uint envPerfIndex;\n    uint envHealth;\n    uint ecoVitality;\n    uint changes;\n    uint editTime;\n  }\n\n  //uint == ID\n  mapping (uint => Country) public countries;\n  mapping (string => Country[]) public history;\n\n  constructor () public {\n    //genesis();\n  }\n\n\n  function genesis() public {\n\n    uint currentTime = now;\n\n    countries[countryCount] = Country(0, \"America\", 100, 99, 98, 97, 96, 0, currentTime);\n    countryCount++;\n  }\n\n\n  function addCountry(string memory name, uint total, uint perCap, uint EPI, uint EH, uint EV) public {\n\n    uint currentTime = now;\n\n    countries[countryCount] = Country(countryCount, name, total, perCap, EPI, EH, EV, 0, currentTime);\n\n    countryCount ++;\n\n  }\n\n  function updateCountry(uint id, string memory name, uint total, uint perCap, uint EPI, uint EH, uint EV) public {\n\n    uint oldCO2 = countries[id].totalCO2;\n    uint oldPerCap = countries[id].perCapCO2;\n    uint oldEPI = countries[id].envPerfIndex;\n    uint oldEH = countries[id].envHealth;\n    uint oldEV = countries[id].ecoVitality;\n\n    storeOldCountry(id, name, oldCO2, oldPerCap, oldEPI, oldEH, oldEV);\n\n    //countries[id] = Country(id, name, total, perCap, EPI, EH, EV, numRevisions, currentTime );\n    storeNewCountry(id, name, total, perCap, EPI, EH, EV);\n  }\n\n  function storeNewCountry(uint id, string memory name, uint total, uint perCap, uint EPI, uint EH, uint EV) private {\n\n    uint currentTime = now;\n    uint numRevisions = (countries[id].changes + 1);\n\n    countries[id] = Country(id, name, total, perCap, EPI, EH, EV, numRevisions, currentTime );\n  }\n\n  function storeOldCountry(uint id, string memory name, uint oldTotal, uint oldPerCap, uint oldEPI, uint oldEH, uint oldEV) private {\n\n    Country memory countryHistory = Country(id, name, oldTotal, oldPerCap, oldEPI, oldEH, oldEV, countries[id].changes, countries[id].editTime);\n\n    history[name].push(countryHistory);\n\n  }\n\n  function returnCountryCount (uint id) public view returns (uint) {\n\n    uint editCount = countries[id].changes;\n\n    return editCount;\n  }\n\n\n  function returnCountry (uint index, string memory name) public view returns (Country memory) {\n\n    return history[name][index];\n  }\n\n}\n",
  "sourcePath": "/Users/reuben/Desktop/work/blueVista/ethereum/climateth/contracts/countries.sol",
  "compiler": {
    "name": "solc",
    "version": "0.5.16+commit.9c3226ce.Emscripten.clang"
  },
  "schemaVersion": "3.0.22",
  "updatedAt": "2020-04-12T16:31:33.012Z",
  "networkType": "ethereum",
  "devdoc": {
    "methods": {}
  },
  "userdoc": {
    "methods": {}
  }
}